:100000000C9446000C9465000C9465000C946500FB
:100010000C9465000C9465000C9465000C946500CC
:100020000C9465000C9465000C9465000C946500BC
:100030000C9465000C94DE000C9465000C94650033
:100040000C9465000C9465000C9465000C9465009C
:100050000C9465000C9465000C9465000C9465008C
:100060000C9465000C9465000C9465000C9465007C
:100070000C9465000C9465000C9465000C9465006C
:100080000C9465000C9465000C94650011241FBE4F
:10009000CFEFD0E4DEBFCDBF11E0A0E0B1E0E0EAF9
:1000A000F5E000E00BBF02C007900D92A231B1074E
:1000B000D9F721E0A2E1B1E001C01D92AB31B20756
:1000C000E1F70E94FD010C94CE020C940000CF9346
:1000D000DF9300D01F92CDB7DEB789837B836A831D
:1000E00089818A3031F48A819B81BC018DE00E9434
:1000F000670080EC90E0FC018081882F90E08072A6
:100100009927892BB1F386EC90E02981FC012083AB
:1001100080E090E00F900F900F90DF91CF910895C5
:10012000CF93DF93CDB7DEB781E890E02BE0FC0101
:10013000208388E890E02DE730E0FC0131832083C4
:100140008FE690E022E0FC01208384E890E0FC014F
:100150001182108280910E0190910F01A0911001E7
:10016000B09111018093130190931401A093150194
:10017000B09316018FE590E02FE530E0F901208182
:100180002068FC0120830000DF91CF910895CF9378
:10019000DF93CDB7DEB781E890E0FC01108200006C
:1001A000DF91CF910895CF93DF93CDB7DEB781E094
:1001B000809312010000DF91CF9108951F920F925A
:1001C00000905F000F92112400905B000F922F931C
:1001D0003F934F935F936F937F938F939F93AF93CF
:1001E000BF93EF93FF93CF93DF93CDB7DEB78091AB
:1001F000130190911401A0911501B091160101977E
:10020000A109B1098093130190931401A0931501E2
:10021000B09316018091130190911401A0911501E2
:10022000B0911601892B8A2B8B2B91F40E94D3005D
:1002300080910E0190910F01A0911001B0911101D8
:100240008093130190931401A0931501B0931601AC
:100250000000DF91CF91FF91EF91BF91AF919F91FE
:100260008F917F916F915F914F913F912F910F905F
:1002700000925B000F9000925F000F901F90189506
:10028000CF93DF9300D000D0CDB7DEB769837A83F8
:100290008B839C8389819A81AB81BC8180930E0181
:1002A00090930F01A0931001B093110180910E0162
:1002B00090910F01A0911001B09111018093130151
:1002C00090931401A0931501B093160100000F90B4
:1002D0000F900F900F90DF91CF910895CF93DF9300
:1002E000CDB7DEB78AE790E02AE730E0F901208158
:1002F000206EFC0120830000DF91CF910895CF9301
:10030000DF9300D0CDB7DEB788E790E0FC018081B5
:1003100091819A83898380E690E09093180180937D
:1003200017018091190190911A018130910569F0AE
:100330008130910518F00297F9F035C082E090E025
:1003400090931A018093190135C080911701909103
:10035000180129813A812817390738F081E090E0A7
:1003600090931A018093190125C082E090E0909348
:100370001A01809319011EC08091170190911801F4
:1003800029813A812817390738F081E090E090936D
:100390001A01809319010EC082E090E090931A0137
:1003A0008093190107C082E090E090931A01809336
:1003B000190100008091190190911A018130910575
:1003C00059F08130910518F0029761F010C085E274
:1003D00090E0FC0110820BC085E290E021E0FC017E
:1003E000208305C085E290E0FC011082000000003F
:1003F0000F900F90DF91CF910895CF93DF9300D0AE
:1004000000D000D0CDB7DEB784E290E02FEFFC0142
:10041000208385E290E0FC01108281E290E0FC0103
:10042000108282E290E02FEFFC0120830E946E0197
:1004300010921A011092190188E790E0FC01808166
:1004400091819A83898380EC90E090931801809346
:1004500017018091170190911801969587959695AF
:100460008795969587959C838B838B819C819E83B2
:100470008D8329813A818B819C812817390730F43B
:1004800085E290E021E0FC012083D6CF2D813E81E2
:100490008B819C81280F391F89819A81821793074C
:1004A00030F485E290E023E0FC012083C5CF8B810E
:1004B0009C819C01220F331F8D819E81280F391F43
:1004C00089819A818217930730F485E290E027E0D2
:1004D000FC012083B1CF2B813C81C901880F991F7A
:1004E000280F391F8D819E81280F391F89819A819C
:1004F0008217930730F485E290E02FE0FC0120831F
:100500009BCF8B819C819C01220F331F220F331FB5
:100510008D819E81280F391F89819A8182179307C7
:1005200030F485E290E02FE1FC01208385CF2B8120
:100530003C81C901880F991F880F991F280F391F07
:100540008D819E81280F391F89819A818217930797
:1005500030F485E290E02FE3FC0120836DCF2B8106
:100560003C81C901880F991F820F931F880F991F23
:100570009C018D819E81280F391F89819A81821764
:10058000930730F485E290E02FE7FC01208354CFFD
:1005900085E290E02FEFFC0120834ECFF894FFCF4F
:1005A00000000002000000006700000000000100E1
:0205B000000049
:00000001FF
